:100000000C9472000C94F8020C94EE020C94C4024E
:100010000C94BA020C94B0020C94A6020C949C02AC
:100020000C9492020C9488020C947E020C9474023C
:100030000C946A020C94B9010C94AF010C94A501C4
:100040000C94EB010C94E1010C94D7010C94CD01BC
:100050000C94C3010C9409020C94FF010C94F5015B
:100060000C9460020C9405010C94FB000C94F100BC
:100070000C9456020C944C020C9442020C949B017A
:100080000C9491010C9487010C947D010C947301E4
:100090000C94E7000C94DD000C94D3000C9438020F
:1000A0000C942E020C9469010C945F010C94550180
:1000B0000C944B010C9441010C9437010C942D01CC
:1000C0000C9423010C9419010C940F010C94C90099
:1000D0000C94BF000C94B5000C94AB000C94A100E0
:1000E0000C94970011241FBECFEFD1E2DEBFCDBF2D
:1000F00000E00CBF22E0A0E0B2E001C01D92A430FD
:10010000B207E1F70E9486000C94020380E284B9F2
:1001100083E08093690094E09DBB9FEF97BD92E0E0
:1001200094BD95E095BD80936E007894FFCF1F92AB
:100130000F920FB60F9211240F900FBE0F901F90C9
:1001400018951F920F920FB60F9211240F900FBEA9
:100150000F901F9018951F920F920FB60F921124B7
:100160000F900FBE0F901F9018951F920F920FB611
:100170000F9211240F900FBE0F901F9018951F9291
:100180000F920FB60F9211240F900FBE0F901F9079
:1001900018951F920F920FB60F9211240F900FBE59
:1001A0000F901F9018951F920F920FB60F92112467
:1001B0000F900FBE0F901F9018951F920F920FB6C1
:1001C0000F9211240F900FBE0F901F9018951F9241
:1001D0000F920FB60F9211240F900FBE0F901F9029
:1001E00018951F920F920FB60F9211240F900FBE09
:1001F0000F901F9018951F920F920FB60F92112417
:100200000F900FBE0F901F9018951F920F920FB670
:100210000F9211240F900FBE0F901F9018951F92F0
:100220000F920FB60F9211240F900FBE0F901F90D8
:1002300018951F920F920FB60F9211240F900FBEB8
:100240000F901F9018951F920F920FB60F921124C6
:100250000F900FBE0F901F9018951F920F920FB620
:100260000F9211240F900FBE0F901F9018951F92A0
:100270000F920FB60F9211240F900FBE0F901F9088
:1002800018951F920F920FB60F9211240F900FBE68
:100290000F901F9018951F920F920FB60F92112476
:1002A0000F900FBE0F901F9018951F920F920FB6D0
:1002B0000F9211240F900FBE0F901F9018951F9250
:1002C0000F920FB60F9211240F900FBE0F901F9038
:1002D00018951F920F920FB60F9211240F900FBE18
:1002E0000F901F9018951F920F920FB60F92112426
:1002F0000F900FBE0F901F9018951F920F920FB680
:100300000F9211240F900FBE0F901F9018951F92FF
:100310000F920FB60F9211240F900FBE0F901F90E7
:1003200018951F920F920FB60F9211240F900FBEC7
:100330000F901F9018951F920F920FB60F921124D5
:100340000F900FBE0F901F9018951F920F920FB62F
:100350000F9211240F900FBE0F901F9018951F92AF
:100360000F920FB60F9211240F900FBE0F901F9097
:1003700018951F920F920FB60F9211240F900FBE77
:100380000F901F9018951F920F920FB60F92112485
:100390000F900FBE0F901F9018951F920F920FB6DF
:1003A0000F9211240F900FBE0F901F9018951F925F
:1003B0000F920FB60F9211240F900FBE0F901F9047
:1003C00018951F920F920FB60F9211240F900FBE27
:1003D0000F901F9018951F920F920FB60F92112435
:1003E0000F900FBE0F901F9018951F920F920FB68F
:1003F0000F9211240F900FBE0F901F9018951F920F
:100400000F920FB60F9211240F900FBE0F901F90F6
:1004100018951F920F920FB60F9211248F939F93EE
:1004200080910202909103020196909303028093BF
:1004300002028091020290910302C29740F085B1BE
:1004400090E2892785B910920302109202029F91CF
:100450008F910F900FBE0F901F9018951F920F92C3
:100460000FB60F9211240F900FBE0F901F9018958A
:100470001F920F920FB60F9211240F900FBE0F9084
:100480001F9018951F920F920FB60F9211240F9084
:100490000FBE0F901F9018951F920F920FB60F92DC
:1004A00011240F900FBE0F901F9018951F920F925E
:1004B0000FB60F9211240F900FBE0F901F9018953A
:1004C0001F920F920FB60F9211240F900FBE0F9034
:1004D0001F9018951F920F920FB60F9211240F9034
:1004E0000FBE0F901F9018951F920F920FB60F928C
:1004F00011240F900FBE0F901F9018951F920F920E
:100500000FB60F9211240F900FBE0F901F901895E9
:100510001F920F920FB60F9211240F900FBE0F90E3
:100520001F9018951F920F920FB60F9211240F90E3
:100530000FBE0F901F9018951F920F920FB60F923B
:1005400011240F900FBE0F901F9018951F920F92BD
:100550000FB60F9211240F900FBE0F901F90189599
:100560001F920F920FB60F9211240F900FBE0F9093
:100570001F9018951F920F920FB60F9211240F9093
:100580000FBE0F901F9018951F920F920FB60F92EB
:1005900011248F939F938091000290910102019604
:1005A00090930102809300028091000290910102D9
:1005B000059720F010920102109200028091000233
:1005C0009091010296E3899F802D112487BD9F9110
:1005D0008F910F900FBE0F901F9018951F920F9242
:1005E0000FB60F9211240F900FBE0F901F90189509
:1005F0001F920F920FB60F9211240F900FBE0F9003
:080600001F901895F894FFCF3C
:00000001FF
