:100000000C9472000C94A5020C949B020C94910227
:100010000C9487020C947D020C9473020C94690278
:100020000C945F020C9455020C944B020C94410208
:100030000C9437020C94A1010C9497010C948D013F
:100040000C94D3010C94C9010C94BF010C94B5011C
:100050000C94AB010C94F1010C94E7010C94DD01BC
:100060000C942D020C94ED000C94E3000C94D90038
:100070000C9423020C9419020C940F020C9483012B
:100080000C9479010C946F010C9465010C945B0144
:100090000C94CF000C94C5000C94BB000C9405028A
:1000A0000C94FB010C9451010C9447010C943D01FC
:1000B0000C9433010C9429010C941F010C9415012C
:1000C0000C940B010C9401010C94F7000C94B100FA
:1000D0000C94A7000C949D000C9493000C94890040
:1000E0000C947F0011241FBECFEFD1E2DEBFCDBF45
:1000F00000E00CBF0E947E000C94AF02FFCF1F9265
:100100000F920FB60F9211240F900FBE0F901F90F9
:1001100018951F920F920FB60F9211240F900FBED9
:100120000F901F9018951F920F920FB60F921124E7
:100130000F900FBE0F901F9018951F920F920FB641
:100140000F9211240F900FBE0F901F9018951F92C1
:100150000F920FB60F9211240F900FBE0F901F90A9
:1001600018951F920F920FB60F9211240F900FBE89
:100170000F901F9018951F920F920FB60F92112497
:100180000F900FBE0F901F9018951F920F920FB6F1
:100190000F9211240F900FBE0F901F9018951F9271
:1001A0000F920FB60F9211240F900FBE0F901F9059
:1001B00018951F920F920FB60F9211240F900FBE39
:1001C0000F901F9018951F920F920FB60F92112447
:1001D0000F900FBE0F901F9018951F920F920FB6A1
:1001E0000F9211240F900FBE0F901F9018951F9221
:1001F0000F920FB60F9211240F900FBE0F901F9009
:1002000018951F920F920FB60F9211240F900FBEE8
:100210000F901F9018951F920F920FB60F921124F6
:100220000F900FBE0F901F9018951F920F920FB650
:100230000F9211240F900FBE0F901F9018951F92D0
:100240000F920FB60F9211240F900FBE0F901F90B8
:1002500018951F920F920FB60F9211240F900FBE98
:100260000F901F9018951F920F920FB60F921124A6
:100270000F900FBE0F901F9018951F920F920FB600
:100280000F9211240F900FBE0F901F9018951F9280
:100290000F920FB60F9211240F900FBE0F901F9068
:1002A00018951F920F920FB60F9211240F900FBE48
:1002B0000F901F9018951F920F920FB60F92112456
:1002C0000F900FBE0F901F9018951F920F920FB6B0
:1002D0000F9211240F900FBE0F901F9018951F9230
:1002E0000F920FB60F9211240F900FBE0F901F9018
:1002F00018951F920F920FB60F9211240F900FBEF8
:100300000F901F9018951F920F920FB60F92112405
:100310000F900FBE0F901F9018951F920F920FB65F
:100320000F9211240F900FBE0F901F9018951F92DF
:100330000F920FB60F9211240F900FBE0F901F90C7
:1003400018951F920F920FB60F9211240F900FBEA7
:100350000F901F9018951F920F920FB60F921124B5
:100360000F900FBE0F901F9018951F920F920FB60F
:100370000F9211240F900FBE0F901F9018951F928F
:100380000F920FB60F9211240F900FBE0F901F9077
:1003900018951F920F920FB60F9211240F900FBE57
:1003A0000F901F9018951F920F920FB60F92112465
:1003B0000F900FBE0F901F9018951F920F920FB6BF
:1003C0000F9211240F900FBE0F901F9018951F923F
:1003D0000F920FB60F9211240F900FBE0F901F9027
:1003E00018951F920F920FB60F9211240F900FBE07
:1003F0000F901F9018951F920F920FB60F92112415
:100400000F900FBE0F901F9018951F920F920FB66E
:100410000F9211240F900FBE0F901F9018951F92EE
:100420000F920FB60F9211240F900FBE0F901F90D6
:1004300018951F920F920FB60F9211240F900FBEB6
:100440000F901F9018951F920F920FB60F921124C4
:100450000F900FBE0F901F9018951F920F920FB61E
:100460000F9211240F900FBE0F901F9018951F929E
:100470000F920FB60F9211240F900FBE0F901F9086
:1004800018951F920F920FB60F9211240F900FBE66
:100490000F901F9018951F920F920FB60F92112474
:1004A0000F900FBE0F901F9018951F920F920FB6CE
:1004B0000F9211240F900FBE0F901F9018951F924E
:1004C0000F920FB60F9211240F900FBE0F901F9036
:1004D00018951F920F920FB60F9211240F900FBE16
:1004E0000F901F9018951F920F920FB60F92112424
:1004F0000F900FBE0F901F9018951F920F920FB67E
:100500000F9211240F900FBE0F901F9018951F92FD
:100510000F920FB60F9211240F900FBE0F901F90E5
:1005200018951F920F920FB60F9211240F900FBEC5
:100530000F901F9018951F920F920FB60F921124D3
:100540000F900FBE0F901F9018951F920F920FB62D
:100550000F9211240F900FBE0F901F901895F894D2
:02056000FFCFCB
:00000001FF
