:100000000C9472000C94AF000C94D5020C94CB02AB
:100010000C94C1020C94B7020C94AD020C94A30290
:100020000C9499020C948F020C9485020C947B0220
:100030000C9471020C94DB010C94D1010C94C70157
:100040000C940D020C9403020C94F9010C94EF0132
:100050000C94E5010C942B020C9421020C941702D1
:100060000C9467020C9427010C941D010C9413014D
:100070000C945D020C9453020C9449020C94BD0143
:100080000C94B3010C94A9010C949F010C9495015C
:100090000C9409010C94FF000C94F5000C943F02A1
:1000A0000C9435020C948B010C9481010C94770113
:1000B0000C946D010C9463010C9459010C944F0144
:1000C0000C9445010C943B010C9431010C94EB0011
:1000D0000C94E1000C94D7000C94CD000C94C30058
:1000E0000C94B90011241FBECFEFD1E2DEBFCDBF0B
:1000F00000E00CBF12E0A0E0B2E0E4ECF6E000E0CB
:100100000BBF02C007900D92A031B107D9F70E9432
:10011000DF020C9460039C01EAE0F0E0BF010E9462
:100120003803482FCB01BF010E94380354E0880FE9
:10013000991F5A95E1F7842B88B992B142E0942730
:1001400092B982B1842782B9119A1198C90164E6E3
:1001500070E00E94380368B9109A109808951F92B1
:100160000F920FB60F9211240F900FBE0F901F9099
:1001700018951F920F920FB60F9211240F900FBE79
:100180000F901F9018951F920F920FB60F92112487
:100190000F900FBE0F901F9018951F920F920FB6E1
:1001A0000F9211240F900FBE0F901F9018951F9261
:1001B0000F920FB60F9211240F900FBE0F901F9049
:1001C00018951F920F920FB60F9211240F900FBE29
:1001D0000F901F9018951F920F920FB60F92112437
:1001E0000F900FBE0F901F9018951F920F920FB691
:1001F0000F9211240F900FBE0F901F9018951F9211
:100200000F920FB60F9211240F900FBE0F901F90F8
:1002100018951F920F920FB60F9211240F900FBED8
:100220000F901F9018951F920F920FB60F921124E6
:100230000F900FBE0F901F9018951F920F920FB640
:100240000F9211240F900FBE0F901F9018951F92C0
:100250000F920FB60F9211240F900FBE0F901F90A8
:1002600018951F920F920FB60F9211240F900FBE88
:100270000F901F9018951F920F920FB60F92112496
:100280000F900FBE0F901F9018951F920F920FB6F0
:100290000F9211240F900FBE0F901F9018951F9270
:1002A0000F920FB60F9211240F900FBE0F901F9058
:1002B00018951F920F920FB60F9211240F900FBE38
:1002C0000F901F9018951F920F920FB60F92112446
:1002D0000F900FBE0F901F9018951F920F920FB6A0
:1002E0000F9211240F900FBE0F901F9018951F9220
:1002F0000F920FB60F9211240F900FBE0F901F9008
:1003000018951F920F920FB60F9211240F900FBEE7
:100310000F901F9018951F920F920FB60F921124F5
:100320000F900FBE0F901F9018951F920F920FB64F
:100330000F9211240F900FBE0F901F9018951F92CF
:100340000F920FB60F9211240F900FBE0F901F90B7
:1003500018951F920F920FB60F9211240F900FBE97
:100360000F901F9018951F920F920FB60F921124A5
:100370000F900FBE0F901F9018951F920F920FB6FF
:100380000F9211240F900FBE0F901F9018951F927F
:100390000F920FB60F9211240F900FBE0F901F9067
:1003A00018951F920F920FB60F9211240F900FBE47
:1003B0000F901F9018951F920F920FB60F92112455
:1003C0000F900FBE0F901F9018951F920F920FB6AF
:1003D0000F9211240F900FBE0F901F9018951F922F
:1003E0000F920FB60F9211240F900FBE0F901F9017
:1003F00018951F920F920FB60F9211240F900FBEF7
:100400000F901F9018951F920F920FB60F92112404
:100410000F900FBE0F901F9018951F920F920FB65E
:100420000F9211240F900FBE0F901F9018951F92DE
:100430000F920FB60F9211240F900FBE0F901F90C6
:1004400018951F920F920FB60F9211240F900FBEA6
:100450000F901F9018951F920F920FB60F921124B4
:100460000F900FBE0F901F9018951F920F920FB60E
:100470000F9211240F900FBE0F901F9018951F928E
:100480000F920FB60F9211240F900FBE0F901F9076
:1004900018951F920F920FB60F9211240F900FBE56
:1004A0000F901F9018951F920F920FB60F92112464
:1004B0000F900FBE0F901F9018951F920F920FB6BE
:1004C0000F9211240F900FBE0F901F9018951F923E
:1004D0000F920FB60F9211240F900FBE0F901F9026
:1004E00018951F920F920FB60F9211240F900FBE06
:1004F0000F901F9018951F920F920FB60F92112414
:100500000F900FBE0F901F9018951F920F920FB66D
:100510000F9211240F900FBE0F901F9018951F92ED
:100520000F920FB60F9211240F900FBE0F901F90D5
:1005300018951F920F920FB60F9211240F900FBEB5
:100540000F901F9018951F920F920FB60F921124C3
:100550000F900FBE0F901F9018951F920F920FB61D
:100560000F9211240F900FBE0F901F9018951F929D
:100570000F920FB60F9211240F900FBE0F901F9085
:1005800018951F920F920FB60F9211240F900FBE65
:100590000F901F9018951F920F920FB60F92112473
:1005A0000F900FBE0F901F9018951F920F920FB6CD
:1005B0000F9211240F900FBE0F901F901895CF939C
:1005C000DF93CDB7DEB760970FB6F894DEBF0FBEEE
:1005D000CDBF83E081B980E882B91FEF17B918B8A1
:1005E00090E080E00E948B0080E1E0E0F2E0DE013C
:1005F000119601900D928A95E1F784B1806F84B9CC
:1006000015B917B911B91AB8AA24A394B12CCE01FF
:1006100001966C0184E0E82EF12CC5010E2C01C07E
:10062000880F0A94EAF7809585B910E000E083B15D
:1006300090E0002E02C0959587950A94E2F780FD20
:1006400007C0F601E00FF11F808190E00E948B004F
:100650000F5F1F4F0430110551F79FEFE91AF90A98
:1006600084E0C80ED11C98E0E916F104B1F6CFCFB2
:1006700097FB072E16F4009407D077FD09D00E944F
:100680004C0307FC05D03EF4909581959F4F08954B
:10069000709561957F4F0895AA1BBB1B51E107C060
:1006A000AA1FBB1FA617B70710F0A61BB70B881F02
:1006B000991F5A95A9F780959095BC01CD01089591
:0406C000F894FFCFDC
:1006C40043003D2B0102032D0405062A07080925D2
:00000001FF
